:100000007438119F11B9740E119F11B97401119FA9
:1000100011B97406119F11B97482119F11B97448F6
:1000200011AC11B9744911AC11B9742011AC11B9EA
:10003000744411AC11B9744511AC11B9744111ACCF
:1000400011B9745211AC11B9742011AC11B97443C7
:1000500011AC11B9745311AC11B9744511AC11B98B
:10006000742011AC11B974C4119F11B9744911AC49
:1000700011B9742011AC11B9744111AC11B9744D9E
:1000800011AC11B9742011AC11B9744C11AC11B987
:0F009000744311AC11B9744411AC11B902000CD6
:0F009F00F590C2A0C2A1D2A211B9C2A222F590BF
:0F00AE00D2A0C2A1D2A211B9C2A2227B057C05A9
:0500BD00DCFEDBFA226D
:00000001FF
